:020000040800F2
:1000000008260020B1230008ED010008EF010008D8
:10001000FB010008FF0100080302000800000000C7
:1000200000000000000000000000000007020008BF
:1000300009020008000000001B4600087F48000875
:10004000CB230008CB230008CB230008CB230008D8
:10005000CB230008CB230008CB230008CB230008C8
:10006000CB230008CB230008CB230008CB230008B8
:10007000CB230008CB230008CB230008CB230008A8
:10008000CB230008CB230008CB230008CB23000898
:10009000CB230008CB230008CB230008CB23000888
:1000A000CB230008CB230008CB230008CB23000878
:1000B000CB230008CB230008CB230008CB23000868
:1000C000CB230008CB230008CB230008CB23000858
:1000D000CB230008CB230008CB230008CB23000848
:1000E000CB230008CB230008CB230008CB23000838
:1000F000CB230008CB230008CB230008CB23000828
:10010000CB230008CB230008CB230008CB23000817
:10011000CB230008CB230008CB230008CB23000807
:10012000CB230008CB230008CB230008CB230008F7
:10013000CB230008CB230008CB230008CB230008E7
:10014000CB230008CB230008CB230008CB230008D7
:10015000CB230008CB230008CB230008CB230008C7
:10016000CB230008CB230008CB230008CB230008B7
:10017000CB230008CB230008CB230008CB230008A7
:10018000CB230008CB230008DFF80CD004F060FE7E
:1001900000480047E10100080826002010B50021B2
:1001A00007E04AF2104200BF131EA2F10102FBD188
:1001B000491C8142F5D310BD10B5002106E028226C
:1001C00000BF131EA2F10102FBD1491C8142F6D3EC
:1001D00010BD00BF011EA0F1010290B2FAD170471C
:1001E00001F0D1FB01E001F0D6FBFCE7704703E032
:1001F0004FF4FA70FFF7D2FFFAE700BFFEE700BF47
:10020000FEE700BFFEE770477047000070B5054687
:100210000C4600F0BEFED02000F063FF00F0F6FEBA
:1002200018B100F0D4FE012070BD284600F059FF3F
:1002300000F0ECFE204600F054FF00F0E7FE18B19D
:1002400000F0C5FE0120EFE700F0C1FE0020EBE763
:1002500070B504460025BC2C01DB012510E0622CA2
:1002600001DB02250CE02A2C01DB032508E0142C1D
:1002700001DB042504E00A2C01DB052500E006254E
:1002800029461A20FFF7C2FF70BD70B50446B4F5C9
:100290007A7F01DD4FF47A74042C00DA04244FF4E1
:1002A0007A7090FBF4F0401EC5B229461920FFF782
:1002B000ADFF0546264604EBD671C1F34F00FFF7AC
:1002C000C7FF70BD70B504460D4600F062FE2046C3
:1002D00000F007FF00F09AFE284600F002FF00F051
:1002E00095FE00F056FE611CC8B200F0FAFE00F068
:1002F0008DFE002000F01EFF064600F068FE30462E
:1003000070BD10B50446E006010E1C20FFF77EFF0D
:1003100010BD10B50446E006010E1B20FFF776FF66
:1003200010BD10B50020FE49086000F014FE8021C9
:100330006B20FFF76BFF6420FFF730FF00216B207D
:10034000FFF764FF0320FFF7E4FF0020FFF7D9FF6A
:100350003220FFF79AFF00213820FFF757FF0021D6
:100360006A20FFF753FF00212320FFF74FFF802172
:100370003720FFF74BFF75216820FFF7A3FF0446E6
:10038000682C0BD101216B20FFF740FF00216C206E
:10039000FFF73CFF3220FFF778FF01E0012010BD9E
:1003A0000020FCE72DE9F04106460F4614461D46A5
:1003B00000F0EFFD002141EA4601C8B200F091FED5
:1003C00000F024FE20B100F002FE0120BDE8F08123
:1003D000384600F086FE00F019FE00F0DAFD01213B
:1003E00001EB4601C8B200F07CFE00F00FFE0DE00C
:1003F000012C04D1002000F09DFE287003E00120B4
:1004000000F098FE2870601EC4B26D1C002CEFD165
:1004100000F0DDFD0020D9E710B52DED088B82B08E
:1004200001AB022241216820FFF7BCFF9DF80500C7
:100430009DF8041040EA012004B2204604F002FCBA
:1004400041EC1B0B9FEDB70B53EC102B04F08BFB17
:1004500041EC1A0B9FEDB50B53EC102B04F06AFA2C
:1004600041EC190B04F012FC08EE100A9FEDB10AE2
:1004700028EE000ABDEEC00A10EE100A00B202B06B
:10048000BDEC088B10BD2DE9FC4104460D46164617
:100490006B46062243216820FFF784FF0746BFB959
:1004A0009DF801009DF8001040EA012000B2208074
:1004B0009DF803009DF8021040EA012000B2288058
:1004C0009DF805009DF8041040EA012000B230803C
:1004D0003846BDE8FC812DE9FC4104460D46164630
:1004E0006B4606223B216820FFF75CFF0746BFB939
:1004F0009DF801009DF8001040EA012000B2208024
:100500009DF803009DF8021040EA012000B2288007
:100510009DF805009DF8041040EA012000B23080EB
:100520003846BDE8FC812DE9F04105460E461746E8
:10053000984600F02EFD002141EA4501C8B200F0C6
:10054000D0FD00F063FD20B100F041FD0120BDE8C9
:10055000F081304600F0C5FD00F058FD00240CE0AD
:1005600018F8040000F0BDFD00F050FD18B100F0D7
:100570002EFD0120EBE7601CC4B2BC42F0DB00F0B2
:1005800026FD0020E3E76C48007840F002006A494D
:1005900008700846007840F001000870704766480F
:1005A000007840F0020064490870704762480078A3
:1005B00040F0010060490870704710B55F4B0E2293
:1005C0003B216820FFF7EEFE10BD0FB55C480088A8
:1005D000A0B90020ADF80000ADF80200ADF80400AD
:1005E0005849086058490860584908600120544932
:1005F000088000230020108050809080BDF900000A
:100600005049096808444F490860BDF902004E4945
:10061000096808444C490860BDF90400C01A4B49F8
:10062000096808444949086045480088C8281DD120
:10063000444800684249098890FBF1F000B21080FC
:10064000414800683E49098890FBF1F000B25080B3
:100650003D4800683A49098890FBF1F000B290806B
:10066000002037490880012004B000BD34480088CC
:10067000401C334908800020F6E70CB52F4840782D
:100680002E49097840EA012031490988401A00B210
:10069000304908802948C0782849897840EA0120F3
:1006A0002B494988401A00B22A494880234840799A
:1006B0002249097940EA012025498988401A00B277
:1006C000244988801D48407A1C49097A40EA012063
:1006D00021490988401A00B2204908801748C07A89
:1006E0001649897A40EA01201B494988401A00B21C
:1006F0001A4948801148407B1049097B40EA012093
:1007000015498988401A00B2144988800A4800783F
:1007100000F00100C0B308460168009180881FE026
:10072000BC0240420000000000407540A4703D0A39
:10073000D74342400000C84218000020D0000020EB
:1007400044000020380000203C0000204000002031
:100750000600002012000020000000200C000020F5
:10076000ADF804000023FD4ADDE90001FFF72DFF8D
:1007700050B1FB48007820F00100F94908700846A4
:10078000007840F002000870F548007800F00100A1
:1007900098B1F448016800918088ADF8040042F2F5
:1007A0000403EE4ADDE90001FFF70FFF28B1EC4832
:1007B000007820F00200EA4908700CBDF0EE400A13
:1007C000F6EE001A60EEA11AB0EE611AB0EE600A01
:1007D00010EE100AE449A1EB600000EE100A21EED1
:1007E000002AF7EE081A42EE401A61EE801AB0EEC7
:1007F000610A704710B5FFF7E0FEFFF73EFF0C22DD
:10080000DA49D84800F0B5FDD84890ED000ADFED90
:10081000D80A20EE200ADFEDD70A20EE200A80ED6C
:10082000000A90ED010ADFEDD20A20EE200ADFED8A
:10083000D10A20EE200A80ED010A90ED020ADFEDD8
:10084000CC0A20EE200ADFEDCB0A20EE200A80ED54
:10085000020AC948B0F9000000EE100AB8EEC00A5A
:10086000DFEDC60A20EE200AC54880ED000AC24826
:10087000B0F9020000EE100AB8EEC00ADFEDBF0AC0
:1008800020EE200ABE4880ED010ABB48B0F9040002
:1008900000EE100AB8EEC00ADFEDB80A20EE200A1A
:1008A000B74880ED020AB7480078E8B3AF4890ED4A
:1008B000000ADFEDB50A20EE200AB448D0ED000AA8
:1008C0009FEDB31A00EE810AA84880ED000A90ED72
:1008D000010ADFEDAD0A20EE200AAC48D0ED010A96
:1008E0009FEDAB1A00EE810AA04880ED010A90ED61
:1008F000020ADFEDA50A20EE200AA448D0ED020A84
:100900009FEDA31A00EE810A984880ED020A90ED4F
:10091000000A9E4880ED000A944890ED010A9B4829
:1009200080ED010A914800E004E090ED020A97484A
:1009300080ED020A8D4890ED000A964880ED000A8D
:100940008A4890ED010A934880ED010A874890EDAE
:10095000020A904880ED020A90ED000AB5EEC00A46
:10096000F1EE10FA10D090ED010AB5EEC00AF1EEEA
:1009700010FA09D090ED020AB5EEC00AF1EE10FAB5
:1009800002D001208449087010BDF0B52DED108B08
:100990009BB004460F4615462422804911A803F057
:1009A000B7FF97ED000AF0EE409A97ED010AF0EEDE
:1009B000408A97ED020AB0EE409A94ED000AB0EE3C
:1009C00040AA94ED010AF0EE40AA94ED020AB0EEBE
:1009D00040BA734890ED000A20EE000AF0EE40BAEB
:1009E00090ED000A6F48D0ED000A20EE200AF0EEEC
:1009F00040DA6B4890ED000A6B48D0ED000A20EE1B
:100A0000200AB0EE40EA664890ED000A6748D0ED53
:100A1000000A20EE200A8DED0B0A624890ED000AD4
:100A200020EE000AB0EE40CA90ED000A5E48D0ED1C
:100A3000000A20EE200A8DED0A0A5A4890ED000ABD
:100A40005A48D0ED000A20EE200AF0EE40EA56485F
:100A500090ED000A20EE000AF0EE40CA90ED000A88
:100A60005248D0ED000A20EE200AB0EE40FA90ED98
:100A7000000A20EE000AB0EE40DA29EEA80A20EEC5
:100A8000090AB5EEC00AF1EE10FA03D11BB0BDECB5
:100A9000108BF0BD69EEA90A48EEA80A49EE090AD2
:100AA000B0EE600AFFF78AFEB0EE408A29EE880AAF
:100AB000F0EE409A28EE880AF0EE408A29EE080A05
:100AC000B0EE409A3EEECE0AF0EE000A60EE20FA5A
:100AD0003DEE8F0AF0EE000A20EE200A8DED100A9E
:100AE0003BEECC0A30EE6C0A30EE0D0A8DED0F0AAB
:100AF0009DED0F0A28EE800ADDED100A09EE600A6E
:100B00008DED0E0A29EE2F0ADDED0F0A09EEE00A3F
:100B10008DED0D0A9DED100A29EE800A08EEEF0A10
:100B20008DED0C0A2248D0ED000A9DED0E0A9FEDD6
:100B3000211A40EE010AC0ED000A1F48D0ED000A5C
:100B40009DED0D0A9FED1B1A40EE010AC0ED000A53
:100B50001A48D0ED000A9DED0C0A31E0000000209B
:100B60001800002012000020865A375F0401002080
:100B700040DAFF380AE81C410C00002045798B3A26
:100B8000EC000020460000206666663F1001002051
:100B9000CDCCCC3D2801002019000020945900083C
:100BA0001C0000202000002024000020280000203D
:100BB0002C0000200AD7A33B300000203400002086
:100BC0001FED041A40EE010AC0ED000A9DED0E0A69
:100BD000B7EE081AF0EE4A0A41EE000ACF4890ED4F
:100BE000000A30EE800AB0EE40AA9DED0D0AB7EE85
:100BF000081AF0EE6A0A41EE000AC94890ED000AB0
:100C000030EE800AF0EE40AA9DED0C0AB7EE081A0D
:100C1000F0EE4B0A41EE000AC24890ED000A30EEB9
:100C2000800AB0EE40BAC04890ED000AB1EE400A2A
:100C300020EE0A0ABD48D0ED000A00EEEA0ABC48E0
:100C4000D0ED000A00EECB0ABA48D0ED000A1FED45
:100C5000271A40EE010AC0ED000A90ED000A20EECE
:100C60000A0AB248D0ED000A00EE8B0AB048D0ED77
:100C7000000A00EEEA0AAC48D0ED000A1FED331A74
:100C800040EE010AC0ED000AAA4890ED000A20EEED
:100C90002A0AA548D0ED000A00EECB0AA448D0ED00
:100CA000000A00EE8A0AA148D0ED000A1FED3F1AA3
:100CB00040EE010AC0ED000A9E4890ED000A20EEC9
:100CC0000B0A9948D0ED000A00EEAA0A9748D0ED29
:100CD000000A00EECA0A9648D0ED000A1FED4B1A32
:100CE00040EE010AC0ED000A9248D0ED000A60EE25
:100CF000A00A8D4890ED001AD0ED001A41EE210AAD
:100D00008A4890ED001AD0ED001A41EE210A884879
:100D100090ED001AD0ED001A41EE210AB0EE600A03
:100D2000FFF74CFDB0EE408A824890ED000A20EEBD
:100D3000080A80ED000A7C4890ED000A20EE080ABF
:100D400080ED000A794890ED000A20EE080A80ED57
:100D5000000A774890ED000A20EE080A80ED000AAC
:100D60003BEE8C0A30EE6C0A30EE4D0A8DED110A26
:100D70009DED0A0ADDED0B0A30EE200AF0EE000AC6
:100D800020EE200A8DED120A3EEECE0AF0EE000AA9
:100D900020EE200A8DED130A9DED0A0ADDED0B0A07
:100DA00030EE600AF0EE000A20EE200A8DED140A03
:100DB0003BEECC0A30EE2C0A30EE4D0A8DED150AD2
:100DC0003FEE2D0AF0EE000A20EE200A8DED160A05
:100DD0003EEE8E0AF0EE000A20EE200A8DED170A94
:100DE0003FEE6D0AF0EE000A20EE200A8DED180AA3
:100DF0003BEECC0A30EE6C0A30EE0D0A8DED190A8E
:100E000095ED010AD4ED020A9FED4B1A60EE810ABE
:100E10009FED4A1A00EE810A85ED010A3EEECE0AE8
:100E2000F0EE000A20EE200A10EE101A084603F039
:100E30001AFFCDE902019DED020B04F085F88DED5E
:100E4000040B9DED040B51EC100B81F000419FED64
:100E50003C0B53EC102BCDE906019DED060B51EC3C
:100E6000100B03F00EFECDE908019DED080B51ECCF
:100E7000100B03F00BFF28603BEECC0A30EE6C0A3F
:100E800030EE0D0A10EE101A084603F0ECFEB0EE3C
:100E9000000A2FEE000AF0EE000A00EEAD0ACDE9DE
:100EA000020110EE101A084603F0DDFECDE9000144
:100EB0009DED021B9DED000B04F062FB8DED040B1C
:100EC0009DED040B51EC100B81F000419FED1C0BCC
:100ED00053EC102BCDE906019DED060B51EC100BE8
:100EE00003F0CFFDCDE908019DED080B51EC100B8F
:100EF00003F0CCFEA86000260BE011A800EB8600F2
:100F000090ED000A104800EB860080ED000A701C8E
:100F1000C6B2092EF1DB00BFB8E500002C000020AE
:100F20003000002034000020200000202400002099
:100F3000280000201C000020A34C65420AD7233C57
:100F40000000006066A64C403401002010B504206B
:100F5000FFF732F910BD1CB50121022000F0E2FFBD
:100F60004FF45860009001208DF8040002208DF8A5
:100F7000050000208DF8060001208DF80700694665
:100F8000834800F089FD4FF45861814800F000FE6D
:100F90001CBD10B57E48006820F440007C49086004
:100FA0000846006840F48000086001207949086024
:100FB0007949C1F8A802FFF7C9FF00207549086008
:100FC000FFF7C4FF00207449C1F8A80210BD10B596
:100FD0006F48006820F440006D49086008460068CA
:100FE00040F48000086000206A49091F08606A49CF
:100FF000C1F8AC02FFF7AAFF01206649091F08608B
:101000006549C1F8AC02FFF7A1FF10BD10B500247F
:101010005F48006820F440005D49086008460068A9
:10102000086001205B490860FFF790FF01205A49E2
:10103000C1F8A802FFF78AFF07E0601CC4B2FA2CCF
:1010400003DDFFF7C4FF012010BD5248803800685F
:101050000028F2D14F49091F086000BFF4E710B51E
:1010600000204C49091F08604948006820F44000EE
:10107000474908600846006840F480000860002086
:101080004549C1F8AC02FFF761FF01204149091F42
:101090000860FFF75BFF00203F49C1F8A80210BDC0
:1010A00010B500203B49091F08603948006820F44A
:1010B0004000374908600846006840F48000086036
:1010C00001203549C1F8AC02FFF740FF012031494A
:1010D000091F0860FFF73AFF00202F49C1F8A80256
:1010E00010BD70B504462A48006820F44000284925
:1010F00008600846006840F4800008600020254928
:10110000091F0860002512E0E00922490860600616
:10111000040E01202049C1F8A802FFF717FF0020A4
:101120001C49091F0860FFF711FF681CC5B2082D94
:10113000EADB70BD70B5054600241548006820F450
:10114000400013490860084600680860002615E062
:1011500000201049091F0860FFF7F8FE01200E4922
:10116000C1F8A8026006040E0A488038006808B179
:10117000601CC4B2FFF7EAFE701CC6B2082EE7DBA3
:1011800015B9FFF78DFF01E0FFF769FF204670BD3D
:1011900000040240AC8240420080404200EB8103E8
:1011A00093ED000AF0EE400A29E000E0521E914261
:1011B00008DA00EB820393ED000AB4EEE00AF1EEE8
:1011C00010FAF3DA00EB820393ED000A00EB8103DF
:1011D00083ED000A00E0491C914208DA00EB81032C
:1011E00093ED000AB4EEE00AF1EE10FAF3D900EB49
:1011F000810393ED000A00EB820383ED000A914224
:10120000D3DB00EB8103C3ED000A00EE101AB8EE49
:10121000C00A7047F0B507460D461646B54212DAC9
:10122000324629463846FFF7B9FFBDEEC00A10EE38
:10123000104A621E29463846FFF7ECFF3246611C11
:101240003846FFF7E7FFF0BD70B52DED028BB0EE2D
:10125000408A06460C469FEDFE0AF0EE408A0025C5
:10126000FC4801780078401CFA4A1070FA4800EBFC
:10127000810080ED008A10460078A04205DAF74828
:10128000007810B1BDEC028B70BD0020F3490870EE
:10129000621E0021F048FFF7BDFF01250AE0EE487D
:1012A00000EB850090ED000A30EE280AF0EE408A4F
:1012B000681CC5B2601EA842F1DCE6480078A04276
:1012C00002DB0020E3490870A01E00EE100AB8EE11
:1012D000C00AC8EE800AC6ED000A00BFD2E770B5AA
:1012E0002DED028BB0EE408A06460C469FEDD80AE3
:1012F000F0EE408ADA4801780078401CD84A107035
:10130000D84800EB810080ED008A10460078A042AA
:1013100005DAD548007810B1BDEC028B70BD002015
:10132000D1490870621E0021CE48FFF773FF0125E6
:101330000AE0CC4800EB850090ED000A30EE280A68
:10134000F0EE408A681CC5B2601EA842F1DCC448B9
:101350000078A04202DB0020C1490870A01E00EE08
:10136000100AB8EEC00AC8EE800AC6ED000A00BF37
:10137000D2E7F0B52DED048B06460F4614469FEDDF
:10138000B40AB0EE408A9FEDB20AF0EE408A9FEDBB
:10139000B00AB0EE409AB6F9000000EE100AB8EEBE
:1013A000C00AB248B249097800EB810080ED000A1A
:1013B000B6F9020000EE100AB8EEC00AAD48AC491A
:1013C000097800EB810080ED000AB6F9040000EE18
:1013D000100AB8EEC00AA848A549097800EB8100B8
:1013E00080ED000AA2480078401CA1490870084618
:1013F0000078A04205DAA148007810B1BDEC048B5A
:10140000F0BD00209D490870621E00219748FFF73B
:1014100001FF621E00219748FFF7FCFE621E0021BB
:101420009548FFF7F7FE01251CE0904800EB85008A
:1014300090ED000A30EE080AB0EE408A8D4800EBCD
:10144000850090ED000A30EE280AF0EE408A8A48C6
:1014500000EB850090ED000A30EE090AB0EE409AEC
:10146000681CC5B2601EA842DFDC81480078A0423B
:1014700002DB00207E490870A01E00EE100AB8EEC4
:10148000C00AC8EE000AC7ED000A00EE100AB8EE66
:10149000C00AC8EE800AC7ED010A00EE100AB8EED5
:1014A000C00AC9EE000AC7ED020A00BFA6E7F0B500
:1014B0000546059C9FED663AB0EE430A9FED643AFF
:1014C000F0EE430A9FED623AB0EE431A9FED603AA8
:1014D000F0EE431A9FED5E3AB0EE432A9FED5C3A80
:1014E000F0EE432AB5F9006003EE106AB8EEC33A95
:1014F000634E644F3F7806EB870686ED003AB5F9F8
:10150000026003EE106AB8EEC33A5F4E5D4F3F785B
:1015100006EB870686ED003AB5F9046003EE106A23
:10152000B8EEC33A594E574F3F7806EB870686ED23
:10153000003AB1F9006003EE106AB8EEC33A544EB7
:10154000504F3F7806EB870686ED003AB1F902600E
:1015500003EE106AB8EEC33A4E4E4A4F3F7806EBA0
:10156000870686ED003AB1F9046003EE106AB8EE22
:10157000C33A494E434F3F7806EB870686ED003A63
:10158000404E3678761C3F4F3E703E463678A64237
:1015900003DA424E367806B1F0BD00263F4F3E706A
:1015A000002037E0364E06EB800696ED003A33EE2B
:1015B000003AB0EE430A344E06EB800696ED003A50
:1015C00033EE203AF0EE430A304E06EB800696EDFD
:1015D000003A33EE013AB0EE431A2D4E06EB800688
:1015E00096ED003A33EE213AF0EE431A294E06EB1F
:1015F000800696ED003A33EE023AB0EE432A264ECC
:1016000006EB800696ED003A33EE223AF0EE432ADE
:10161000461CF0B2A042C5DB1A4E3678A64202DB69
:101620000026184F3E7003EE104AB8EE433AC0EE63
:10163000033AC2ED003A03EE104AB8EE433AC0EE68
:10164000833AC2ED013A03EE104AB8EE433A27E07E
:101650000000000047000020580100204800002042
:1016600049000020A80100204A000020F8010020C5
:101670004B00002048020020980200204C0000206F
:10168000E80200204D0000203803002088030020DD
:10169000D803002028040020780400204E000020F9
:1016A000C1EE033AC2ED023A03EE104AB8EE433AF5
:1016B000C1EE833AC3ED003A03EE104AB8EE433A66
:1016C000C2EE033AC3ED013A03EE104AB8EE433AD4
:1016D000C2EE833AC3ED023A00BF5DE72DE9F04167
:1016E0000346002400250026B3F90070DFF864C229
:1016F000DFF8648298F800804CF82870B3F9027023
:10170000DFF858C2DFF8508298F800804CF8287053
:10171000B3F90470DFF848C2DFF83C8298F8008023
:101720004CF828708C4F3F787F1CDFF82CC28CF867
:10173000007067463F78974204DA8A4F3F780FB1CE
:10174000BDE8F0810027DFF81CC28CF80070002093
:101750000CE0804F57F820703C44804F57F82070C1
:101760003D447F4F57F820703E44401C9042F0DBD0
:10177000794F3F78974204DB0027DFF8DCC18CF813
:10178000007094FBF2F700EE107AB8EEC00A81ED1B
:10179000000A95FBF2F700EE107AB8EEC00A81ED70
:1017A000010A96FBF2F700EE107AB8EEC00A81ED5E
:1017B000020A00BFC4E710B502461FED5B1AF0EE47
:1017C000410A694B694C247803EB840383ED000ADA
:1017D000664B1B785B1C654C237023461B788B4241
:1017E00003DA634B1B7803B110BD0023604C2370F8
:1017F00000200AE05C4B03EB800393ED001A31EE0E
:10180000201AF0EE410A431CD8B28842F2DB574B53
:101810001B788B4202DB0023544C237001EE101A1C
:10182000B8EE411AC0EE811AC2ED001A00BFDBE724
:1018300030B502461FED7A1AF0EE410A4D4B1C7886
:101840001B785B1C4B4D2B704B4B03EB840383EDE0
:10185000000A2B461B788B4203DA484B1B7803B1F6
:1018600030BD0023454C237000200AE0424B03EBBF
:10187000800393ED001A31EE201AF0EE410A431C6A
:10188000D8B28842F2DB3B4B1B788B4202DB002351
:10189000384C237001EE101AB8EE411AC0EE811ACE
:1018A000C2ED001A00BFDBE7DFED351A60EE211A4A
:1018B00021EEA02AF7EE002AC2EE821AB7EE002A25
:1018C00071EE821AF7EE002A82EEA12AD0ED001AFC
:1018D00071EE612AD0ED001A42EE221AC0ED001A14
:1018E000704700B5B0EE404AF0EE604A0146B0EEF7
:1018F000413A0846B0EE431AF0EE440AB0EE640AEC
:10190000FFF7D2FF91ED000AB5EEC00AF1EE10FA32
:1019100002DD91ED000A03E091ED000AB1EE400A0C
:10192000F0EE403AB1EE630AB4EEC03AF1EE10FACE
:1019300002D2B1EE630A09E0B4EEE33AF1EE10FA36
:1019400002DDB0EE630A01E0B0EE430A81ED010A68
:1019500000BD0000C80400204F0000201805002032
:101960006805002050000020B8050020510000202C
:1019700052000020530000200806002054000020E0
:10198000C3F5C840704710B5FFF7FCFFFFF7E3FA57
:10199000FEF7C7FC10BD10B50520FEF70DFCFEF7E5
:1019A00029FF034A03490448FEF7EFFF10BD00007A
:1019B000E000002004010020EC00002010B50446E7
:1019C0008C48844208D10121084600F000FB002128
:1019D000012000F0FCFA5EE08748844208D1012132
:1019E000022000F0F4FA0021022000F0F0FA52E0A8
:1019F0008248844208D10121042000F0E8FA002145
:101A0000042000F0E4FA46E07D48844208D1012138
:101A1000082000F0DCFA0021082000F0D8FA3AE0B3
:101A20007848844208D10121102000F0D0FA00212A
:101A3000102000F0CCFA2EE07348844208D1012136
:101A4000202000F0C4FA0021202000F0C0FA22E09B
:101A50006E48844208D10121402000F0B8FA0021EC
:101A6000402000F0B4FA16E06948844208D1012110
:101A7000802000F0ACFA0021802000F0A8FA0AE0F3
:101A80006448844207D10121801500F0A0FA0021AA
:101A9000A01500F09CFA10BDF0B50A460021002305
:101AA000002400BF3DE0012505FA01F3156805EAB1
:101AB00003049C4234D105684F000326BE40B54361
:101AC000056015794E00B540066835430560157907
:101AD000012D02D01579022D16D185684F000326FD
:101AE000BE40B543856055794E00B54086683543A4
:101AF0008560456801268E40B54345604568967906
:101B00008E40B6B235434560C5684F000326BE40DF
:101B1000B543C560D5794E00B540C6683543C5604C
:101B2000491C1029BFD3F0BD4FF6FF7101600021A1
:101B3000017141718171C171704708B54FF48032F4
:101B40000092009A0A430092009AC261C161009A11
:101B5000C261C2690092C269009208BD02460020BB
:101B600013690B400BB1012000E0002070470146D3
:101B7000086980B270470246002053690B400BB1E0
:101B8000012000E0002070470146486980B270479C
:101B900001837047418370470AB1018300E04183AC
:101BA00070474161704742694A4042617047F0B5F1
:101BB000002300244D07ED0E02FA05F3CE1000F1CC
:101BC000200555F826504E07F70E0F26BE40B543A8
:101BD000CF1000F1200646F82750CE1000F1200566
:101BE00055F8265045EA0304CE1000F1200545F8CB
:101BF0002640F0BD00000240000402400008024000
:101C0000000C024000100240001402400018024084
:101C1000001C024000200240FA48006840F0010029
:101C2000F84908600020F74908310860F548006865
:101C3000F5490840F3490860F448091D0860081F89
:101C4000006820F48020091F08600020ED490C3155
:101C5000086070470021EB4A921C11701146087011
:101C6000704710B501460022002300204A11012AC6
:101C700002D1E44C236808E0022A03D1E14C70341D
:101C8000236802E0DF4C7434236801F01F02012452
:101C900094401C400CB1012000E0002010BD38B57C
:101CA000002000900024002500BF3120FFF7D9FF5D
:101CB00005460098401C00900098B0F5A06F01D038
:101CC000002DF2D03120FFF7CCFF08B1012400E055
:101CD0000024204638BD01460020CA4A106820F082
:101CE000F80040EAC10010607047C94908607047B9
:101CF0000021C44A703211701170012802D00428EA
:101D00000AD104E00121BF4A7032117005E00521BB
:101D1000BC4A7032117000E000BF00BF7047BD497F
:101D20000860704770B5049C41EA82150126C6EB35
:101D3000530645EA0645054345EA0465B14E361D9E
:101D4000356070BDB24908667047820142EA01728F
:101D5000AC4B84331A607047AD4988667047AC4914
:101D6000C864704702460020A64B0833186820F06C
:101D7000EC6042EA01031843A24B08331860704735
:101D8000024600209F4B0833186820F0784042EA52
:101D9000010318439B4B083318607047014600202D
:101DA000984A0832106820F003000843106070471A
:101DB00094480830006800F00C007047014600208D
:101DC000904A0832106820F0F00008431060704715
:101DD000014600208B4A0832106820F4E050084386
:101DE0001060704701460020864A0832106820F4CF
:101DF000604040EAC10010607047F0B50021002249
:101E000000240225002602237E4F08373F6807F092
:101E10000C0121B1042905D0082937D105E07E4FF6
:101E2000076036E07D4F076033E0764F3F1D3F6827
:101E3000C7F38056734F3F1D3F6807F03F036EB1F5
:101E4000764FB7FBF3F7DFF8BCC10CF1040CDCF8FC
:101E500000C0CCF3881C07FB0CF40CE06E4FB7FB02
:101E6000F3F7DFF8A0C10CF1040CDCF800C0CCF3F0
:101E7000881C07FB0CF4634F3F1D3F68C7F3014705
:101E80007F1C7D00B4FBF5F7076002E0624F07603E
:101E900000BF00BF5B4F08373F6807F0F00109093A
:101EA0005F4F7A5C0768D7404760564F08373F68F6
:101EB00007F4E051890A5A4F7A5C4768D740876037
:101EC000504F08373F6807F46041490B544F7A5C24
:101ED0004768D740C760F0BD002100F44072B2F5FA
:101EE000407F0AD1474A0832116821F4F8114D4A5F
:101EF00002401143434A08321160424A703212686C
:101F0000C0F30B031A433F4B70331A6070474149CB
:101F10004439086070473F4940390860704742497A
:101F20000860704739B1374A303212680243354B86
:101F300030331A6006E0334A303212688243314B44
:101F400030331A60704739B12E4A34321268024376
:101F50002C4B34331A6006E02A4A3432126882432A
:101F6000284B34331A60704739B1264A3832126828
:101F70000243244B38331A6006E0224A3832126892
:101F80008243204B38331A60704739B11D4A4032C2
:101F9000126802431B4B40331A6006E0194A403274
:101FA00012688243174B40331A60704739B1154AA3
:101FB000443212680243134B44331A6006E0114A5C
:101FC0004432126882430F4B44331A60704739B170
:101FD0000C4A1032126802430A4B10331A6006E0B2
:101FE000084A103212688243064B10331A60704759
:101FF000E1B1044A143212680243024B14331A60EE
:1020000019E0000000380240FFFFF6FE1030002407
:1020100000004742800E47420024F40040787D01D2
:1020200055000020FFFCFF0F5C0147425B4A12682D
:1020300082435A4B1A60704739B1584A121D1268D0
:102040000243564B1B1D1A6006E0544A121D1268CB
:102050008243524B1B1D1A60704739B14F4A0C32F4
:10206000126802434D4B0C331A6006E04B4A0C32A7
:1020700012688243494B0C331A60704739B1474AA2
:10208000103212680243454B10331A6006E0434A8F
:10209000103212688243414B10331A60704739B1D5
:1020A0003E4A3C32126802433C4B3C331A6006E025
:1020B0003A4A3C3212688243384B3C331A607047CC
:1020C00039B1364A403212680243344B40331A6009
:1020D00006E0324A403212688243304B40331A6085
:1020E000704739B12D4A4432126802432B4B4433B6
:1020F0001A6006E0294A443212688243274B44336F
:102100001A60704739B1254A4C3212680243234B9A
:102110004C331A6006E0214A4C32126882431F4B4E
:102120004C331A60704739B11C4A5032126802436E
:102130001A4B50331A6006E0184A50321268824334
:10214000164B50331A60704739B1144AD21F1278B7
:102150000243124BDB1F1A7006E0104AD21F12789E
:1021600082430E4BDB1F1A7070470C4860300068CA
:1021700040F08070094960310860704701460020D6
:10218000064A083A12680A400AB1012000E000201D
:1021900070470249891F08707047000014380240D8
:1021A0000CB50020019000907648006840F4803023
:1021B0007449086000BF7348006800F40030009064
:1021C0000198401C0190009818B90198B0F5A06FD3
:1021D000F1D16C48006800F4003010B1012000908B
:1021E00001E0002000900098012846D16548403069
:1021F000006840F0805063494031086062480068E0
:1022000040F48040604908605E48083000685D49DD
:10221000083108600846006840F40040086008463D
:10222000006840F4A05008605848091F0860081F63
:10223000006840F08070091F086000BF51480068C6
:1022400000F000700028F9D040F2056050490860A5
:102250004C480830006820F003004A490831086003
:102260000846006840F00200086000BF454808309A
:10227000006800F00C000828F8D10CBD10B54548E6
:10228000006840F47000434908603E48006840F030
:1022900001003C49086000203A490831086039488B
:1022A00000683D490840374908603C48091D0860FE
:1022B000081F006820F48020091F086000203149B1
:1022C0000C310860FFF76CFF4FF000603149803936
:1022D000086010BD70B500200022022300240221F6
:1022E000284D08352D6805F00C0020B1042806D0D3
:1022F000082834D107E02A4D2A4E356033E02A4DB4
:10230000284E35602FE01F4D2D1D2D68C5F38054DC
:102310001C4D2D1D2D6805F03F0154B1224DB5FB1C
:10232000F1F5184E361D3668C6F3881605FB06F221
:1023300009E01B4DB5FBF1F5124E361D3668C6F3AC
:10234000881605FB06F20F4D2D1D2D68C5F30145BE
:102350006D1C6B00B2FBF3F5124E356003E0104DBF
:10236000104E356000BF00BF064D08352D68C5F31F
:1023700003150E4E705D0B4D2D68C540094E35603E
:1023800070BD000000380240007000401954400742
:10239000003C024088ED00E0FFFFF6FE1030002414
:1023A0000024F4006800002040787D016C000020CB
:1023B0000648804706480047FEE7FEE7FEE7FEE7DF
:1023C000FEE7FEE7FEE7FEE7FEE7FEE77D22000808
:1023D000890100087CB5002514E06946284601F013
:1023E0001DFF064666B9FD4850F8254044B1012C52
:1023F00006D0D4E9020100EB810060640198A0647A
:10240000681CC5B23F2DE8D97CBD00BF00BF03E00A
:102410004FF4FA6002F00AF8F14800780028F7D08B
:10242000F04800686421B0FBF1F0EE49086008460E
:10243000006828B90020EC490870FF2001F02EFF49
:1024400002F0CAF80446E748006864214843E749B7
:102450000860204602F0C4F800BF02F0BDF8044650
:10246000E2480068E24908600020E0490860204630
:1024700002F0B6F8DE480068DA490968B0FBF1F00E
:10248000C0F16400D849087002F004F9FFF7A2FF18
:102490004FF47A7001F0CAFFDFE700B587B0032080
:1024A00000218022D34BCDE90132CDE903104FF654
:1024B000FE703E23D04A0090AFF2B10001F0C7FC9D
:1024C00006AACEA13E2001F02BFE07B000BD0024DD
:1024D00000BF00BF02F080F80446C4480068401CFA
:1024E000C2490860204602F07BF802F0D2F8F1E71A
:1024F00000B587B0032000218022C44BCDE9013212
:10250000CDE903104FF6FF703F23C14A0090AFF2B0
:10251000410001F09CFC06AABEA13F2001F000FE94
:1025200007B000BD04E0002200F8012B4A1E91B262
:102530000029F8D1704770B54FF49671B948FFF78C
:10254000F1FF00230FE0581C85B203EB8300B5496F
:1025500001EB800405EB850001EB80060020207074
:102560006660581C83B20E2BEDD303EB8300AD499C
:1025700001EB80040020207060600846AA490860D2
:1025800070BD70B541F25841A848FFF7CBFF4FF43A
:1025900080719248FFF7C6FF002413E0601CC5B2AB
:1025A000C4EBC40000EB4000A04901EB8003C5EB85
:1025B000C50000EB400001EB80065E619CA0D86482
:1025C000601CC4B23D2CE9D3C4EBC40000EB400056
:1025D000964901EB80030020586195A0D864002043
:1025E0009449086091489449086070BD0021934A5D
:1025F0001170002004E00021914A1154411CC8B21E
:102600000828F8D300218F4A11708F4A11708F4A21
:1026100011608F4A1160704700208E4908608E4912
:1026200008708E4908708E4908708E4908708E496E
:1026300008606E4908606E4908606A490860684928
:102640000870704710B502F01FF8FFF7E5FFFFF7BD
:10265000CDFFFFF796FFFFF76EFF00F0F3FE00F0EF
:10266000E4FF01F0DAFAFFF743FFFFF716FF02F08D
:102670000DF810BD7B480078012808D17648007815
:10268000FF2804D274480078401C734908707047D2
:1026900076496A4A1278885C6949095C734A515CD8
:1026A00001EBC001684A1170704710B500246D48F5
:1026B0000078012830D101F08FFF04466648007889
:1026C00020B165480078401E634908706248007870
:1026D000F8B962480078E0B9FFF7DAFF3F485A4995
:1026E000097850F821005949086057480078554941
:1026F000097888420DD055480068806B401C5349CA
:102700000968886358480068401C5749086001F010
:102710007FFF204601F064FF10BD10B50024514832
:102720000078012811D101F057FF04464A4800788B
:1027300040B94A480078FF2804D248480078401C35
:1027400046490870204601F04BFF10BD10B500242B
:1027500001F042FF044640480078F8B93F4800784D
:10276000E0B9FFF795FF1D483749097850F8210077
:1027700036490860344800783249097888420DD0DB
:1027800032480068806B401C3049096888633648CD
:102790000068401C3449086001F035FF204601F014
:1027A0001FFF10BD10B500242E48007801286FD1FE
:1027B00001F012FF04462848007860B927480078E5
:1027C00050B126480078401E244908700846007819
:1027D00018B920464CE058E053E04EE0D40B0020FE
:1027E000940000208C00002088000020A40000201D
:1027F00090000020D4070020D009002075432F4FFF
:10280000532D49492053746174000000D4090020FD
:10281000D00B002075432F4F532D49492049646C3C
:10282000650000005806002080000020D40C002025
:102830003F000000B4000020AC0000209900002000
:102840009A0000209700002098000020B00000208F
:10285000A8000020C4000020950000209600002061
:10286000A3000020A20000207C000020B85900082E
:1028700001F0B6FEFFF76AFF0AE0204601F0B0FE65
:1028800006E0204601F0ACFE02E0204601F0A8FE82
:1028900010BD10B5EE48007890B9FFF7F9FEED488D
:1028A0000078ED490870ED48EA49097850F82100B0
:1028B000EB49086008460068EA49086001F093FEA9
:1028C00010BD10B50024022001F0B0FD01F084FE1F
:1028D00004460020E4490860204601F081FE4FF4E0
:1028E0007A7001F0A3FD01F077FE0446DE4800682F
:1028F000DE4908600120DE490870204601F070FEC4
:1029000010BD70B5002601F0B9FF01F065FE064666
:10291000D8480068401CD7490860304601F060FE86
:10292000CB480078012853D1D348007820B1012842
:1029300004D0022809D103E001250BE0002509E0BD
:1029400001250120CC49087004E001250020CA4976
:10295000087000BF00BF05B970BDC848046833E007
:1029600001F03AFE0646E06A50B3E06A401EE062BB
:10297000E06A28BB94F8300000F0370040B114F84A
:10298000300F00F0C800207001206070303C02E081
:10299000002084F8310094F8300000F0080078B985
:1029A0003434A078B64909780843B54908702078CE
:1029B000B449085C6178084314F83419B14A50549A
:1029C0006469304601F00CFE94F832003F28C7D10C
:1029D00000BFC1E74FF492707047704710B590F890
:1029E000342001F10B039B5C90F83540A34301F1C7
:1029F0000B04A35423469B5C23B98B7A90F8364092
:102A0000A3438B7210BD2DE9F04F05460F4690464B
:102A10009946A87A9C490E5C05F10B00805D11F87F
:102A200000B00BEBC60000F0FF0A8C4850F82A40BB
:102A300000202034E0602760207C20EA0800207419
:102A400084F81190207C203C00F0080068B994F8CC
:102A500036008B4909780843894908708948805DA8
:102A600094F8351008438749885529462046FFF7D2
:102A7000B5FF5046BDE8F08F10B57A4A1268D061B4
:102A8000784A126892F8343000F10B02D25C754B30
:102A90001B6893F835301A43724B1B6893F8344027
:102AA00000F10B031A55827A6E4B1B6893F836308F
:102AB0001A4382726B4A126892F83410714A525C5F
:102AC000684B1B6893F835309A436E4B5A541A463C
:102AD000525C42B9634A126892F83630684A1278FA
:102AE0009A43674B1A7010BD014600228A7200207B
:102AF00005E0002301F10B021354421CD0B2082858
:102B0000F7D3704705E011F8013B00F8013B531E75
:102B10009AB2002AF7D170470146002002E0491C12
:102B2000421CD0B20A78002AF9D170472DE9F84F3B
:102B300005460F4690469946DDE90AAB0020009015
:102B400001F04AFD009051480468002C7BD01834F5
:102B500054F8040C4D490860009801F041FD44F818
:102B6000187CA576002020766076606144F814BC5D
:102B700044F80CAC44F8108C0C9824F8080C24F899
:102B8000069C0020E077E810207705F00700E0764B
:102B9000217F01208840A077E17E01208840607776
:102BA00000206060E060A0602062A0626062E0627D
:102BB0002063AFF284306063183C002606E00021F9
:102BC00004F1500040F82610701CC6B2002EF6D05A
:102BD000204601F052FE01F0FFFC00901F4840F833
:102BE0002540009801F0FCFC204601F050FD01F06A
:102BF000F3FC00902148006860610020A0611F483C
:102C0000006810B11D48006884611C4804603434B9
:102C1000A0781B4909780843194908702078194998
:102C2000085C6178084314F83419164A505418485F
:102C30000078401C16490870009801F0D1FC002073
:102C4000BDE8F88FFFE7009801F0CAFC4220F7E7E3
:102C5000A20000209800002097000020D40B002044
:102C6000B0000020A8000020A40000208C0000205C
:102C700094000020C4000020B8000020B400002010
:102C8000990000209A000020B8590008AC000020EC
:102C9000A30000202DE9F05F04460F4691461E4632
:102CA0004FF0000B2078052804D001203070002060
:102CB000BDE8F09F09F0800ABAF1000F04D029F0B6
:102CC00080094FF0010801E04FF00008002030704B
:102CD00001F082FC8346B9F1000F2CD0B9F1010F4D
:102CE0003BD0B9F1020F03D0B9F1030F46D111E087
:102CF000208900EA0705BD4206D1B8F1010F05D1D0
:102D00002089A843208101E070203070584601F0EE
:102D100067FC3AE0208900EA070535B1B8F1010FF8
:102D200005D12089A843208101E0702030705846E9
:102D300001F056FC29E0208927EA0005BD4206D1B2
:102D4000B8F1010F05D120892843208101E07020CE
:102D50003070584601F044FC17E0208927EA00054E
:102D600035B1B8F1010F05D120892843208101E058
:102D700070203070584601F033FC06E0584601F0F0
:102D80002FFC00256F20307000BF00BF28468FE762
:102D90002DE9F04106460D460027FA48007820B19B
:102DA000102028700020BDE8F08101F015FC0746D6
:102DB000F548046884B100684068F349086005205C
:102DC0002070268100206060F0A0E060384601F0AD
:102DD00007FC0020287004E0384601F001FC722056
:102DE00028702046DFE730B501464A6808682AB9EE
:102DF000CC68606028B10025456002E0106000B139
:102E000042608B6800255D6230BDF0B506460F4616
:102E1000B4680020283460602780207A00F0DF004A
:102E2000207200206072207A283C88B93434A0785F
:102E3000D74909780843D64908702078D549085CF5
:102E40006178084314F83419D24A5054012500E03F
:102E500000253046FFF7C7FF2846F0BD2DE9F047B3
:102E60000446894615464FF0000AC648007820B14E
:102E70000F2028702046BDE8F0872078052803D071
:102E8000012028702046F6E701F0A6FB8246606824
:102E900008B1012700E00027B9F1000F03D0B9F114
:102EA000010F3CD119E08FB9B8A0E060002020707C
:102EB000B5480068606000202081B3480460504637
:102EC00001F08EFB00202870002605E0504601F03E
:102ED00087FB49202870264628E0D4F8048005E0C6
:102EE00000214046FFF791FFD8F80080B8F1000FAD
:102EF000F6D1A6A0E06000202070A34800686060C2
:102F000000202081A0480460504601F069FB012F99
:102F100001D1FFF71BFC00202870002606E0504678
:102F200001F05EFB07202870264600BF00BF304638
:102F3000A1E72DE9F04105460E46144600279148C9
:102F4000007820B1112020700020BDE8F08101F050
:102F500043FB07462878052806D0384601F040FB99
:102F6000012020700020F0E7E86830603068FFF74B
:102F7000D3FD8046384601F033FB002020704046E8
:102F8000E3E72DE9F04105460E46144600277D484B
:102F9000007818B112202070BDE8F08101F01CFB10
:102FA00007462878052805D0384601F019FB01208E
:102FB0002070F1E7EE60384601F012FB002020702F
:102FC00000BFE9E7F0B51446059E734F3F6897F8D8
:102FD000307047F02007DFF8C0C1DCF800C08CF883
:102FE00030700027DFF8B0C1DCF800C08CF8317019
:102FF000694F3F68FE62684F3F6879620C828B744C
:10300000654F3F688F6047680F6000274F60C8605A
:10301000456805B1696041605F4F3F6897F83420AB
:103020005C4FBF5CDFF870C1DCF800C09CF835C0B5
:1030300027EA0C07DFF85CC10CF802706746BF5C3A
:103040005FB9554F3F6897F836C0514F3F7827EA30
:103050000C07DFF83CC18CF80070F0BD2DE9F04F93
:1030600089B005460F4691469A46129E002002906E
:103070004448007828B102203070002009B0BDE833
:10308000F08F4648007818B10D2030700020F5E729
:103090002878052803D0012030700020EEE709F0E1
:1030A000800BBBF1000F04D009F07F094FF001083D
:1030B00001E04FF0000801F08FFA0290B9F1000F23
:1030C0004AD0B9F1010F78D0B9F1020F03D0B9F1AC
:1030D000030F71D120E0288900EA0704BC420FD118
:1030E000B8F1010F02D12889A04328812A4800683D
:1030F0000485029801F074FA002030702046BDE784
:103100004B463A4604A92846CDF800A0FFF75AFFDF
:10311000029801F065FA78E0288900EA07047CB19A
:10312000B8F1010F02D12889A04328811A4800680C
:103130000485029801F054FA0020307020469DE783
:103140004B463A4604A92846CDF800A0FFF73AFFBF
:10315000029801F045FA58E0288927EA0004BC42A9
:103160001ED1B8F1010F02D12889204328810A48D5
:1031700000680485029801F033FA00203070204680
:103180007CE71AE095000020840000203F0000004A
:10319000990000209A000020A8000020960000203E
:1031A0004B463A4604A92846CDF800A0FFF70AFF8F
:1031B000029801F015FA28E01FE0288927EA0004A8
:1031C0007CB1B8F1010F02D1288920432881B14890
:1031D00000680485029801F003FA00203070204650
:1031E0004CE74B463A4604A92846CDF800A0FFF725
:1031F000E9FE029801F0F4F907E0029801F0F0F915
:1032000000246F203070204638E700BFFFF79EFA99
:1032100001F0E2F902909F48006890F8310020B375
:103220009C48006890F83100039000209949096893
:1032300081F8310004A8FFF7D6FD00209549096800
:1032400081F83000029801F0CBF90024039801289E
:1032500005D0022802D10E20307003E000BF0A2002
:10326000307000BF00BF204608E78A480068048D20
:10327000B8F1010F1ED1B9F1000F0ED0B9F1010F55
:103280000CD0B9F1020F03D0B9F1030F0AD100E05D
:1032900000BF2889A04328810BE000BF2889204374
:1032A000288106E0029801F09BF96F203070002021
:1032B000E4E600BF029801F093F900203070204648
:1032C000DCE670B5002501F087F905467148006815
:1032D000048D284601F084F9204670BD2DE9FC5F7D
:1032E0000446894692461E46002000902078052814
:1032F00004D0012030700020BDE8FC9F01F06CF983
:103300000090BAF1000F03D0BAF1010F0AD104E026
:10331000208920EA090020810BE0208940EA090089
:10332000208106E0009801F05BF9712030700020E8
:10333000E2E700BF4FF0000B656855E0A87C40B3A2
:10334000012838D0022802D0032844D111E0208976
:10335000298A00EA0107288AB84209D13946284655
:10336000FFF753FD8046B8F1010F01D14FF0010B7B
:1033700038E02089298A00EA01074FB139462846FA
:10338000FFF743FD8046B8F1010F01D14FF0010B6B
:1033900028E0288A218920EA0107288AB84209D131
:1033A00039462846FFF731FD8046B8F1010F01D1BB
:1033B0004FF0010B16E0288A218920EA01074FB15E
:1033C00039462846FFF721FD8046B8F1010F01D1AB
:1033D0004FF0010B06E0009801F002F96F20307009
:1033E000002089E700BF2D68002DA7D1009801F0CB
:1033F000F7F8BBF1010F01D1FFF7A8F901F0ECF8E4
:10340000009020890190009801F0EAF800203070C7
:10341000019871E72DE9F04104460D460027207818
:10342000052804D0012028700020BDE8F08101F0BB
:10343000D3F807462689384601F0D2F800202870D4
:103440003046F2E72DE9F04150211348FFF76AF8C2
:1034500000250EE0681C86B20F4800EB051400EB57
:103460000617002020706760AFF2E020E060681C63
:1034700085B2042DEED3084800EB0514002020701F
:103480006060AFF2F820E060034804490860BDE8DE
:10349000F0810000A80000208407002084000020A4
:1034A0002DE9FC5F05460F4691469A4600200090A4
:1034B00001F092F800906F480468006820B16D48F0
:1034C000006840686B490860009801F089F82CB9E1
:1034D0005A208AF800000020BDE8FC9FA8462E462E
:1034E000781E01904FF0000B05E04E44C8F80060D4
:1034F000B0460BF1010B01988345F6D30020C8F8C4
:103500000000256065602761E760C4F808908AF8CC
:1035100000002046E0E72DE9F04104460D46002773
:1035200001F05AF80746206968B166683068606043
:103530002069401E2061384601F052F800202870B2
:103540003046BDE8F081384601F04AF85D20287029
:103550000020F6E72DE9F04106460C461546002707
:103560004548007820B1112028700020BDE8F08186
:1035700001F032F80746706920602068FFF7CCFA46
:103580008046384601F02CF8002028704046EDE7D0
:103590002DE9F04105460E461446002736480078CE
:1035A00018B112202070BDE8F08101F015F807462F
:1035B0006E61384601F014F80020207000BFF2E779
:1035C00070B504460D46002601F006F80646D4E91B
:1035D0000310884204D3304601F002F85E2070BD2B
:1035E0006068286065602069401C2061304600F0FA
:1035F000F7FF0020F3E770B505460C46002600F003
:10360000EBFF06462868206068686060A868A060D4
:10361000E868E06028692061304600F0E1FFD4E905
:103620000301401A6061002070BD70B57821134815
:10363000FEF778FF00240EE004EB44000F4901EB95
:10364000C005601C00EB400001EBC00068600CA0EE
:103650006861601C84B2042CEED304EB440007497B
:1036600001EBC0050020686005A0686108460149BB
:10367000086070BDBC000020950000202C210020B7
:103680003F0000002DE9F04106460D464FF00008CE
:103690003078022804D0012028700020BDE8F08195
:1036A00000F09AFF80467468E08A78B12169081DAD
:1036B00020610F68E08A401EE082A168206988428C
:1036C00001D1606820610020287002E01F2028706E
:1036D0000027404600F084FF3846DFE72DE9F0413F
:1036E00006460F464FF00008F748007810B100205A
:1036F000BDE8F08100F070FF8046F448056800687E
:1037000020B1F24800684068F0490860404600F087
:1037100067FF3DB300F060FF8046ED480468C4B128
:1037200000680068EA490860404600F059FF66609A
:1037300006EB8700A060E6602661A7820020E08299
:1037400002202870002028816C602846FFF7CCF901
:1037500008E0DE4800686860DC480560404600F02C
:103760003FFF00252846C3E72DE9F0470446894678
:1037700015464FF0000A2078022804D00120287056
:103780002046BDE8F087D048007818B10F20287097
:103790002046F6E700F020FF8246A07A10B14FF0F5
:1037A000010801E04FF00008B9F1000F03D0B9F1B2
:1037B000010F45D11FE0B8F1000F15D16668C4486C
:1037C00000683060C248066000202070BF48006872
:1037D000606000202081BD480460504600F000FF7A
:1037E00000202870002705E0504600F0F9FE49202F
:1037F000287027462BE005E00023042219462046C6
:10380000FFF701F9A07A0028F6D16668B048006891
:103810003060AF48066000202070AC4800686060EF
:1038200000202081A9480460504600F0D9FEB8F17C
:10383000010F01D1FEF78AFF00202870002706E063
:10384000504600F0CDFE07202870274600BF00BF7D
:10385000384696E770B50546002600F0BDFE0646E0
:103860006C686068E060606820610020E08230463B
:1038700000F0B6FE002070BD2DE9F04707468846EF
:1038800015464FF000093878022804D0012028702E
:103890000020BDE8F0878C48007818B1022028701D
:1038A0000020F6E78B48007818B10D202870002022
:1038B000EFE700F091FE81467C68E08A98B12169CB
:1038C000081D20610E68E08A401EE082A168206920
:1038D000884201D160682061484600F081FE0020E6
:1038E00028703046D5E77C48006890F8300040F0FA
:1038F00004007949096881F8300000207649096898
:1039000081F8310074480068C0F82C803846FFF711
:10391000B3F8484600F064FEFEF718FF00F05CFEC6
:1039200081466D48006890F8310020B101280DD023
:1039300002280AD105E068480068066A002028705D
:103940000DE000260E20287009E000BF39466248CD
:103950000068FFF743F800260A20287000BF00BF68
:1039600000205D49096881F830005B49096881F8E9
:10397000310059490968C8615749096808624846D1
:1039800000F02EFE304684E72DE9F04104460F4654
:1039900015464FF000082078022804D00120287036
:1039A0000020BDE8F08100F017FE8046A07A20B329
:1039B00000267FB1012F0CD107E002230422002151
:1039C0002046FFF720F8701CC6B2A07A0028F4D178
:1039D00009E000BF0223042200212046FFF713F86C
:1039E000701CC6B200BF00BF404600F0F9FDFEF7F4
:1039F000ADFE0E2028703046D3E7404600F0F0FDC3
:103A00000020287000BFCCE72DE9F04105460E46A6
:103A100000272878022802D00120BDE8F08100F0BC
:103A2000DBFD0746A87A60B1002304223146284610
:103A3000FEF7E9FF384600F0D3FDFEF787FE0020D1
:103A4000EBE76C68E08AA18A884204DB384600F024
:103A5000C7FD1E20E1E7E168081DE0600E60E08A16
:103A6000401CE082D4E90210884201D16068E06025
:103A7000384600F0B5FD0020CFE72DE9F0410546BE
:103A80000E4600272878022802D00120BDE8F081E8
:103A900000F0A2FD0746A87A60B100230422314657
:103AA0002846FEF7B0FF384600F09AFDFEF74EFEBE
:103AB0000020EBE76C68E08AA18A88420EDB38467A
:103AC00000F08EFD1E20E1E7950000208000002020
:103AD000C000002096000020A80000206168206936
:103AE000884201D1A06820612069001F20612069FF
:103AF0000660E08A401CE082384600F071FD00203C
:103B0000C4E72DE9F04105460F4616464FF0000880
:103B10002878022802D00120BDE8F08100F05CFD89
:103B20008046A87AE8B106F0010050B105E0002314
:103B3000042239462846FEF766FFA87A0028F6D107
:103B400005E00023042239462846FEF75CFF404684
:103B500000F046FD06F0040008B9FEF7F7FD00206E
:103B6000DAE76C68E08AA18A884204DB404600F00C
:103B700037FD1E20D0E706F0020058B161682069C9
:103B8000884201D1A06820612069001F206120695E
:103B9000076009E0E168081DE0600F60D4E90210E9
:103BA000884201D16068E060E08A401CE0824046C3
:103BB00000F016FD0020AFE72DE9F04705460C4662
:103BC0004FF0000A2878022802D00120BDE8F087D3
:103BD00000F002FD8246A87A207405F10B0804F17A
:103BE0000809002705E018F8010B09F8010B781CFB
:103BF000C7B2082FF7D36E68F08A18B13069006831
:103C0000206001E000202060F08AA080B08AE0807F
:103C1000504600F0E5FC0020D8E72DE9F041602196
:103C20001048FEF77FFC00240DE0601C86B204EB18
:103C300044000C4901EBC00506EB460001EBC00750
:103C40002F60601C84B2032CEFD304EB44000549C1
:103C500001EBC00500202860084603490860BDE864
:103C6000F0810000A4210020C00000202DE9FF5FAA
:103C7000814688460020009000F0AEFC0090F94894
:103C800050F8280030B1009800F0AAFC282004B0B9
:103C9000BDE8F09FB9F1FF0F03D1F348006890F839
:103CA0003290F04850F8294024B9009800F098FC70
:103CB0002920ECE7012C04D1009800F091FC43206E
:103CC000E5E74FEAE80708F0070003900120B84055
:103CD00000F0FF0A01210398814001F0FF0B002052
:103CE000E04941F82900084640F8284014F8346FAC
:103CF000A07802906078343C0190DC48815D0198A6
:103D00000140D1B1D948805D01998843D749885590
:103D10000846805D28B9D648007802998843D4497E
:103D20000870D348007840EA0A00D1490870CF48AB
:103D3000C05D40EA0B00CD49C855E569D5B105F134
:103D40000B00805D0199884305F10B0188550846F9
:103D5000805D18B9A87A02998843A872A87A40EAC7
:103D60000A00A87205F10B00C05D40EA0B0005F1E6
:103D70000B01C85584F8328084F83470039884F8B5
:103D8000330084F836A084F835B0009800F028FCA1
:103D9000B8480078012801D1FEF7D8FC002076E76A
:103DA0002DE9FE4F06460F4690461C464FF000098F
:103DB00000F012FC8146B048007828B1484600F077
:103DC0000FFC3C20BDE8FE8FA64850F8240060BBE5
:103DD0000120A44941F82400484600F001FC0023DA
:103DE00042463946304600F056FC8246002000909C
:103DF000019003460246514602902046FEF796FE89
:103E0000054635B99B48007801280CD1FEF79EFC89
:103E100009E000F0E1FB81460020924941F82400CE
:103E2000484600F0DDFB2846CCE7484600F0D8FBCA
:103E30002820C7E702F0010343B102F002032BB1CF
:103E400002E0491E002308C00029FAD170472DE97D
:103E5000F04F85B081468A4693461C46DDE90F78CF
:103E6000129D0020039000F0B7FB03908248007879
:103E700030B1039800F0B4FB3C2005B0BDE8F08FF2
:103E8000784850F8240088BB0120764941F8240086
:103E9000039800F0A5FB2A4641463846FFF7CAFFC3
:103EA0002B465A465146484600F0F5FB04901198BF
:103EB000CDE9008002953A4620460E9B0499FEF714
:103EC00035FE064636B96B48007801280CD1FEF75E
:103ED0003DFC09E000F080FB03900020614941F8BF
:103EE0002400039800F07CFB3046C6E7FFE7039808
:103EF00000F076FB2820C0E72DE9F04105460027B9
:103F00005D48007810B14020BDE8F0813F2D01D11F
:103F10003E20F9E700F060FB0746FF2D03D1524831
:103F2000006890F832504F4850F8254024B9384680
:103F300000F056FB4320E7E7012C04D1384600F09F
:103F40004FFB3D20E0E714F8340F4849085C6178E6
:103F500088432178454A505414F834091146085CC6
:103F600030B994F8361042480078884340490870C8
:103F7000E06918B12046E169FEF730FD666A16B1C6
:103F80003046FEF730FF0020E06284F8300084F80D
:103F900031003A480078FF2804D238480078401CA5
:103FA00036490870384600F01BFBFEF716FD00F09E
:103FB00013FB07463148007820B130480078401E96
:103FC0002E490870204600F063FB2D480078401E03
:103FD0002B4908700020234941F82500A06930B919
:103FE00000206169886127496069086005E0D4E9BB
:103FF00005014861D4E905108861234800686061C3
:104000002148046021A0E064384600F0E9FA19482C
:104010000078012801D1FEF799FB002074E72DE913
:10402000F041044600273F2C02D13E20BDE8F0813C
:10403000FF2C0BD100F0D0FA07460B48006890F82F
:104040003760384600F0CCFA3046EFE700F0C4FAAB
:104050000746044850F82450D5B9384600F0C0FA55
:104060004320E3E7D40B0020A80000209A000020A2
:1040700099000020A200002095000020960000205A
:10408000A3000020B4000020AC0000203F0000008E
:10409000012D04D1384600F0A3FA3D20C6E73F20A9
:1040A00085F83700384600F09BFA0020BEE72DE97E
:1040B000F04706460F4614464FF00008D5480078F2
:1040C00020B1112020700020BDE8F08700F084FAB4
:1040D0008046FF2E03D1D048006890F83260CF4868
:1040E00050F8265035B9404600F07AFA4320207047
:1040F0000020E9E7012D06D1404600F071FA432087
:1041000020700020E0E7E86C38603868FEF704FDB6
:104110008146404600F064FA002020704846D3E70C
:104120002DE9F04106460F4614464FF00008B94805
:10413000007818B112202070BDE8F08100F04CFA30
:104140008046FF2E03D1B448006890F83260B3482F
:1041500050F826502DB9404600F042FA4320207016
:10416000EAE7012D05D1404600F03AFA43202070DD
:10417000E2E7EF64404600F033FA0020207000BF11
:10418000DAE770B50546002600F026FA0646A34891
:1041900050F8254024B9304600F022FA462070BD80
:1041A000012C04D1304600F01BFA4320F7E794F8C5
:1041B000300000F0080060B314F8300F00F0F70092
:1041C000207014F83009F8B9E06AC8B93434A0781E
:1041D0009349097808439249087020789149085C0E
:1041E0006178084314F834198E4A5054304600F070
:1041F000F7F98D480078012809D1FEF7A7FA06E003
:10420000304600F0EDF902E0304600F0E9F9002018
:10421000C5E7304600F0E4F94420C0E72DE9F04757
:1042200007460D464FF0000A00202860686000F045
:10423000D3F98246FF2F03D17748006890F8327097
:10424000764850F827402CB9504600F0C9F9432071
:10425000BDE8F087012C04D1504600F0C1F943209D
:10426000F6E7207C00F0010020B9504600F0B8F9D4
:104270004520EDE70026D4F80C90D4F8088050468D
:1042800000F0AEF900E0761C58F8041B0029FAD0C3
:104290002E60A9EB060068600020D9E72DE9F04107
:1042A00005464FF0000800F097F98046FF2D05D134
:1042B0005948006890F83250012608E056480068D6
:1042C00090F83200A84201D1012600E000265348B0
:1042D00050F825402CB9404600F082F94820BDE84E
:1042E000F081012C04D1404600F07AF94320F6E732
:1042F00094F834704B48C05D94F8351088434949B0
:10430000C8550846C05D30B994F836104448007866
:1043100088434349087094F8300040F0080084F85E
:104320003000404600F05CF9012E01D1FEF70EFA94
:104330000020D4E72DE9F04105460E46002700F0A5
:104340004BF90746FF2D03D13348006890F83250EF
:10435000324850F825402CB9384600F041F9292060
:10436000BDE8F081012C04D1384600F039F9432032
:10437000F6E7542221463046FEF7C4FB384600F0EB
:104380002FF90020ECE72DE9F04704460E461746CA
:104390004FF0000900F020F98146FF2C02D11E48A1
:1043A000056802E01D4850F8245005F1500050F80F
:1043B0002680484600F014F9002038704046BDE8D9
:1043C000F0872DE9F04704460E46174698464FF011
:1043D000000900F001F98146FF2C02D10E48056862
:1043E00002E00E4850F8245005F1500040F82670C5
:1043F000484600F0F5F8002088F80000BDE8F08796
:1044000010B50548006800F040F9FF20FFF774FD83
:1044100010BD000095000020A8000020D40B002053
:10442000990000209A000020A200002070B50546E7
:1044300000266248007800B170BD6148007800B184
:10444000FAE71DB300F0C8F806465E48006890F829
:1044500034405D48005D5B49096891F83510884338
:10446000594908550846005D40B95648006890F81B
:1044700036105648007888435449087051480068FF
:10448000C562304600F0ACF8FEF760F900BFD3E734
:104490002DE9F04105460E4617461C464748007870
:1044A00010B15520BDE8F0814548007808B13220B0
:1044B000F8E742F2107060434FF47A71B0FBF1F10B
:1044C0004FF461606843C6EB061200EB820038448B
:1044D00040F27122504301EB00184046FFF7A6FF5F
:1044E0000020DFE770B5054600263F2D01D32A20C6
:1044F00070BD00F071F80646354850F8254024B9E3
:10450000304600F06DF84320F2E7012C04D130462C
:1045100000F066F84320EBE7E06A20B9304600F08F
:104520005FF85020E4E70020E06294F8300000F0EB
:10453000370040B114F8300F20F037002070012010
:104540006070303C02E0002084F8310094F83000C4
:1045500000F00800A8B93434A0781C490978084351
:104560001A49087020781849085C6178084314F8E3
:104570003419154A5054304600F032F8FEF7E6F888
:1045800002E0304600F02CF80020B1E770B50025BD
:1045900000F022F805460F480468284600F020F88D
:1045A000204670BD70B50446002500F015F805469C
:1045B00008480460284600F013F870BD95000020FC
:1045C00096000020A80000209A00002099000020FA
:1045D000D40B0020C4000020EFF3108072B67047A7
:1045E00080F31088704720484FF0FF0101700020D1
:1045F00080F309881D48012101701D484FF080514A
:10460000016062B6FEE71A484FF0805101607047C2
:1046100017484FF080510160704772B6EFF3098080
:1046200040B1403880EC108A203880E8F00F114902
:104630000968086000B5104880475DF804EB0F4832
:104640000F490A7802700B480E490A680260106828
:1046500090E8F00F203090EC108A403080F3098809
:104660004EF0040E62B6704722ED00E0A20000207A
:1046700004ED00E0A8000020794800089700002021
:1046800098000020B00000207047704770477047C6
:1046900070477047704770B5044610460026051FE6
:1046A00028462E60051F28462E604FF01536051F40
:1046B00028462E604FF01436051F28462E604FF016
:1046C0001336051F28462E604FF01236051F284668
:1046D0002E604FF01136051F28462E604FF0103621
:1046E000051F28462E604FF00936051F28462E600C
:1046F0004FF00836051F28462E604FF00736051F7D
:1047000028462E604FF00636051F28462E604FF0D3
:104710000536051F28462E604FF00436051F284633
:104720002E604FF00336051F28462E604FF00236EC
:10473000051F28462E607610051F28462E6000268D
:10474000051F28462E604FF080750560051F28461E
:104750002C60B61E051F28462E604FF01236051F2E
:1047600028462E604FF00336051F28462E604FF076
:104770000236051F28462E607610051F28462E603B
:10478000051F284629604FF03136051F28462E6048
:104790004FF03036051F28462E604FF02936051F92
:1047A00028462E604FF02836051F28462E604FF011
:1047B0002736051F28462E604FF02636051F28464F
:1047C0002E604FF02536051F28462E604FF0243608
:1047D000051F28462E604FF02336051F28462E6001
:1047E0004FF02236051F28462E604FF02136051F58
:1047F00028462E604FF02036051F28462E604FF0C9
:104800001936051F28462E604FF01836051F28461A
:104810002E604FF01736051F28462E604FF01636D3
:10482000051F28462E604FF01136051F28462E60C2
:104830004FF01036051F28462E604FF00936051F31
:1048400028462E604FF00836051F28462E604FF090
:104850000736051F28462E604FF00636051F2846EE
:104860002E604FF00536051F28462E604FF00436A7
:10487000051F28462E6070BD70477047704710B501
:104880001F480068401C1E490860FFF7A5FE04464B
:104890001C480078401C1B4908702046FFF7A0FE0A
:1048A000FEF72FF8FDF701FF10BD7FB56846FDF755
:1048B000A4FA42F210720198B0FBF2F1481EB0F176
:1048C000807F00D31BE0481E4FF0E022506150175C
:1048D0000F22002804DB13071C0E0B4B1C5406E0B0
:1048E00013071D0E094B00F00F04241F1D5500BFB8
:1048F00000204FF0E02290610720106100BF7FBDD3
:10490000C80000209500002000E400E018ED00E061
:1049100040EA01039B0703D009E008C9121F08C041
:10492000042AFAD203E011F8013B00F8013B521EC1
:10493000F9D270472DE9FE4F804681EA0300C00F8F
:104940000C46009021F0004123F00045B8EB020036
:10495000A94105D24046214690461C460B460246D8
:1049600023F00040104347D0270DC7F30A00C3F3DC
:104970000A510290401A019040286BDAC3F31300E9
:1049800040F4801B0098924620B10023D2EB030A2A
:1049900063EB0B0B01985946C0F14002504600F002
:1049A00091F906460D4650465946019A00F0A9F97C
:1049B00010EB08006141002487EA115284EAE77392
:1049C0001A4340D0009A62B3019A012A4FEA075273
:1049D00015DC001B61EB02014FF0004202EA0752B6
:1049E000CDE90042001C41F5801132462B4600F013
:1049F000E0F903B0BDE8F08F40462146F9E7001B1F
:104A000061EB0201001C41F5801300185B41201886
:104A1000A2F5001747EB030140EAD570B6196D41C6
:104A200011E06D084FEA360645EAC0754FEA0752B5
:104A3000001B61EB0201001C41F5801149084FEA9F
:104A400030000019514132462B4603B0BDE8F04F0B
:104A500000F0A0B90098012240000023D0EB020230
:104A600063EBE073009821464FEAE074B8EB000076
:104A700061EB0401E9E783F000435BE781F000416B
:104A800058E72DE9FE4F81EA030404F0004421F0C9
:104A9000004100944FF0000B23F0004350EA010462
:104AA0005ED052EA03045BD0C3F30A54C1F30A5543
:104AB0002C44A4F2F3340194A0FB0254C1F313017B
:104AC00041F48011C3F3130343F4801301FB024448
:104AD00000FB034E840A970A44EA815447EA83574D
:104AE000A4FB076802958D0A05FB07854FEA932C06
:104AF00004FB0C542705029D4FEA065847EA163777
:104B0000B5EB08056EEB070C870E920E47EA81178E
:104B100042EA8312A7FB0201B6EB0B0164EB00042F
:104B20002B0D43EA0C335E1844EB1C50DA46514619
:104B3000E7FB0201C5F313044FEA0B3343EA1453B6
:104B40004FEA0432019C43EA0603A4F10C040294E8
:104B5000009CCDE900B400F02CF903B0BDE8F08F63
:104B600000200146F9E72DE9F04D81EA030404F045
:104B7000004B21F0004514464FF0000A23F000419D
:104B800050EA050220D054EA01021DD0C5F30A57AD
:104B90000246C5F31303C1F31300C1F30A5640F4F0
:104BA000801543F48013A7EB0608101BD64608F2C5
:104BB000FD3873EB050002D308F1010801E09218FB
:104BC0005B41B8F1000F03DA00200146BDE8F08D2B
:104BD00000204FF48011064684460EE0171B73EB4D
:104BE000050705D3121B63EB050306434CEA010CD2
:104BF00049084FEA300092185B4150EA0107EDD1B5
:104C000052EA030012D082EA040083EA0501084355
:104C100005D0101BAB4106D20122002306E0002282
:104C20004FF0004302E06FF0010253101AEB060050
:104C30004CEB085110EB0A0041EB0B01BDE8F04DC5
:104C400000F0A8B80EB5C10F80EAE0700844CA07AA
:104C5000002140F233438DE80E000A460B4600F077
:104C6000A8F803B000BD00F0004230F000400AD0C8
:104C7000C10D01F56071C0F3160042EA0151C2088E
:104C800040071143704700200146704701F0004380
:104C900030B421F0004150EA010206D00A0DA2F51D
:104CA0006072C1F31301002A02DC30BC002070479F
:104CB000440F44EAC104C100E01830BC00EBC2500C
:104CC00000F031B8202A04DB203A00FA02F100207B
:104CD00070479140C2F1200320FA03F3194390403A
:104CE0007047202A04DB203A21FA02F000217047A5
:104CF00021FA02F3D040C2F1200291400843194644
:104D00007047202A06DBCB17203A41FA02F043EA2B
:104D1000E07306E041FA02F3D040C2F12002914074
:104D20000843194670470029A8BF7047401C490036
:104D300008BF20F00100704710B4B0FA80FC00FA00
:104D40000CF050EA010404BF10BC704749B1CCF12B
:104D5000200421FA04F411FA0CF118BF01212143B7
:104D60000843A3EB0C01CB1D4FEA00614FEA102072
:104D700042BF002010BC704700EBC3501044002914
:104D8000A4BF10BC7047401C490008BF20F00100C0
:104D900010BC704710B5141E73F1000408DA401CF3
:104DA00041F1000192185B411A4301D120F001004A
:104DB00010BD2DE9F04D92469B4611B1B1FA81F23A
:104DC00002E0B0FA80F220329046FFF77BFF044603
:104DD0000F4640EA0A0041EA0B0153465A4608438F
:104DE00013D0114653EA010019D0C8F140025046D1
:104DF000FFF777FF05460E46504659464246FFF7F5
:104E000061FF084305D0012004E020463946BDE893
:104E1000F08D0020054346EAE0762C4337430A989C
:104E20006305E40AA0EB08000022FD0A44EA4754A7
:104E30000A3002D500200146E9E701051019694151
:104E4000DDE9084500196941BDE8F04DA2E7000021
:104E5000064C074D06E0E06840F0010394E80700C7
:104E600098471034AC42F6D3FBF792F9A85B0008E0
:104E7000C85B00082DE9F04D00231A461B1A8A4131
:104E800003DB00200146BDE8F08DC1F30A52C1F3F7
:104E9000130141F480154FF0000BD10702D1001827
:104EA0006D41521E0027044640F2FF11384601EBC7
:104EB000620A3E468046024600204FF48011FFF70A
:104EC00010FFC2197141BB1846EB0100B4EB030C93
:104ED00075EB000C04D3E41A65EB000517460E468B
:104EE000241908F101006D4180463428E3DDF919E9
:104EF00046EB0600091BA84103D24FF0FF321346D0
:104F000001E0002213461BEB070046EB0A51BDE807
:104F1000F04DFFF73FBF03B401984100009850EAFD
:104F2000C12018BF04204A0D18BF40F0010040F214
:104F3000FF72B2EB515F08BF40F00200012808BFCA
:104F4000052002B07047000070B5C1482DED020B7E
:104F50002DED0E8B82B0119D25F000449FEDBEDB40
:104F60009FEDBFEB84423EDBA4F140511098A1F1CC
:104F70007F6108430FD0BC48844202DC28D11098DE
:104F800030B39DED100B02B0BDEC0E8B02B0BDE84E
:104F9000704000F069BC9DED100B53EC1D2B51ECE3
:104FA000100BFFF76EFD9DED100B41EC180B53EC51
:104FB0001E2B51EC100BFFF764FD53EC182BFFF781
:104FC000B9FC41EC100B02B0BDEC0E8B02B070BD11
:104FD000012000F08DFC02B0BDEC0E8B02B0BDE8EC
:104FE000704000F055BCA1489FEDA18B844256DA79
:104FF0009DED100BB4F1795F0ADA51EC100BFFF75D
:105000008AFF042808BF00F053FC9DED100BDAE77F
:1050100053EC102B51EC100BFFF733FD41EC190B47
:1050200095480621B0EE490AF0EE690A784400F08E
:105030009FFB53EC192B51EC100BFFF722FD41ECB9
:105040001A0B8E48B0EE490AF0EE690A0421784442
:1050500000F08EFB53EC192B51EC100BFFF711FDF8
:1050600053EC182BFFF766FC41EC100B51EC1A0BBC
:1050700053EC102BFFF777FDCDE900019DED000B00
:1050800053EC102B9DED100B51EC100BFFF7F9FCBE
:105090009DED101B53EC112BFFF74CFCD2E09DED66
:1050A000100B51EC100B00F031FC53EC182BFFF7F8
:1050B000E5FC9FED730BCDE9000153EC102B9DED4A
:1050C000000B51EC100BFFF7DCFC41EC190B6E48A8
:1050D0000621B0EE490AF0EE690A784400F048FB78
:1050E00053EC192B51EC100BFFF7CBFC41EC1B0BD5
:1050F0006648B0EE490AF0EE690A0421784400F0EF
:1051000037FB53EC192B51EC100BFFF7BAFC53ECA7
:10511000182BFFF70FFC41EC1C0B51EC190B00F0A6
:1051200001FC41EC180B5A489FED5BABA04222DC1E
:1051300053EC1C2B51EC1B0BFFF715FDCDE90001C7
:105140009DED000B51EC180B53EC102BFFF799FC65
:1051500053EC182BFFF7EEFB53EC1A2BFFF791FCE7
:1051600053EC1D2BFFF787FC53EC1E2BFFF786FC3F
:1051700041EC100B5FE08DED008B002000909DED69
:10518000000B51EC180B53EC102BFFF7D3FB9DEDEC
:10519000000B41EC1E0B53EC102B51EC100BFFF7E6
:1051A00070FC53EC192BFFF769FC53EC1E2BFFF737
:1051B000DAFC41EC190B53EC1C2B51EC1B0BFFF7E9
:1051C000D2FC41EC1B0B53EC1A2B51EC190BFFF7E3
:1051D00058FC53EC1D2BFFF751FC41EC190B53EC21
:1051E0001A2B51EC180BFFF74CFC53EC1B2BFFF761
:1051F00048FC53EC192BFFF73EFC9DED000B41ECF6
:10520000180B53EC1A2B51EC100BFFF73AFC9FEDE7
:10521000249B53EC192BFFF731FC41EC100B51ECA4
:10522000180B53EC102BFFF726FC53EC192BFFF750
:1052300025FC41EC100B002D3FF7C5AE51EC100BD7
:1052400081F0004141EC100BBDE6000000000000C1
:105250000000F03F00000000075C143326A6913CDC
:10526000182D4454FB21F93F0000F07F0000E03F7F
:10527000000000000000F03F880A0000960A0000CD
:10528000000000000000E03FDA090000E80900002B
:105290003333EF3F0000000000000000000000403A
:1052A000182D4454FB21E93F70B59B482DED020BAE
:1052B0002DED068B079D25F00044A04218DC974891
:1052C000844202DC0AD1069840B19DED060BBDEC8C
:1052D000068B02B0BDE8704000F0C6BA002DCCBF0E
:1052E0009FED8F0B9FED900BBDEC068B02B070BD58
:1052F0008F48A04215DD8F48A042D8BF4FF0FF3441
:1053000058DD9DED060B51EC100BFFF704FE042851
:1053100008BF00F0CDFA9DED060BBDEC068B02B088
:1053200070BD9DED060B51EC100B00F0EFFACDE9CE
:10533000060181489FED828BA0423CDD8248A0425D
:105340001FDD00249FED82AB9DED060B53EC1A2B65
:1053500051EC100BFFF7EEFA9DED060B41EC190B2B
:1053600053EC1A2B51EC100BFFF78BFB53EC182B63
:10537000FFF781FB53EC192BFFF7F5FBCDE9060195
:1053800049E09DED060B012453EC182B51EC100B5A
:10539000FFF7D0FA9DED060B41EC190B53EC182BDF
:1053A00051EC100BFFF767FB53EC192BFFF7DBFBFE
:1053B000CDE906012FE06848A0421FDD02249FEDE1
:1053C000689B9DED060B53EC192B51EC100BFFF76E
:1053D00058FB53EC182BFFF7ADFA9DED060B41EC93
:1053E000180B53EC192B51EC100BFFF744FB53EC4B
:1053F000182BFFF7B8FBCDE906010CE09DED060B7D
:10540000032453EC102B9FED580B51EC100BFFF7BE
:10541000AAFBCDE906019DED060B53EC102B51ECD8
:10542000100BFFF72EFB41EC180B53EC182BFFF77A
:1054300028FB41EC190B4E480621B0EE490AF0EE6C
:10544000690A784400F094F953EC182B51EC100BD6
:10545000FFF717FB41EC180B4648B0EE490AF0EE97
:10546000690A0521784400F083F953EC192B51ECBB
:10547000100BFFF706FB41EC100B51EC180B53EC33
:10548000102B002C0EDAFFF755FA9DED061B53EC9E
:10549000112BFFF7F6FA9DED061B53EC112BFFF7CE
:1054A000EDFA35E0FFF746FA9DED061B53EC112BA4
:1054B000FFF7E7FA41EC100B2F48784400EBC400EB
:1054C00090ED001B51EC100B53EC112BFFF7D3FAAE
:1054D0009DED061B53EC112BFFF7CDFA41EC100BA1
:1054E0002648784400EBC40090ED001B51EC100BF3
:1054F00053EC112BFFF7C2FA41EC100B002DA2BFA9
:10550000BDEC068B02B070BD51EC100B81F0004178
:1055100041EC100B01E70000000010440000F07F98
:10552000182D4454FB21F93F182D4454FB21F9BF99
:105530000000DC3F0000203E0000F33F00000000C0
:10554000000000000000F03F0000E63F0000000007
:105550000000000000000040008003400000000048
:10556000000000000000F83F000000000000F0BF55
:105570002A070000E00600006A060000220600007C
:1055800070B56B4E2DED040B2DED028B82B0DDF866
:105590001CC0DDE905235C422CF000411C4341EABC
:1055A000D474049D22F00040B44205D86C422C43D0
:1055B00040EAD474B4420BD99DED061B9DED040B5B
:1055C00002B0BDEC028B04B0BDE8704000F056B9EB
:1055D000ACF14054A4F17F641C430BD0022404EAD4
:1055E000AC7444EAD27405439FED538B9FED542B6A
:1055F00007D015E09DED040B51EC100B00F07EF987
:1056000042E0002C11BF012C9DED040B02B0BDEC5B
:10561000028B04BF04B070BD022C38D0032C3BD0E9
:105620000B439FED491B9FED4A0B0AD0B14218D1A5
:10563000B04209D121F0804120F0804007910590CF
:105640000FE0002A15DA10E0434B7B44002C08BF22
:1056500093ED000B0DD0012C10D0022C17D0032C91
:105660001AD0B0421DD1002A03DAB0EE410AF0EEA2
:10567000610A02B0BDEC028B04B070BD93ED000B6B
:1056800051EC100B81F0004141EC100BF1E7B0EE52
:10569000480AF0EE680AECE7B0EE420AF0EE620A61
:1056A000E7E7401A00153C28C8BF8DED000B19DC58
:1056B000BCF1000FBEBF10F13C0F9FED290B8DED2B
:1056C000000B0FDB9DED060B53EC102B9DED040B37
:1056D00051EC100BFFF747FA00F018F900F00EF943
:1056E000CDE90001002C08BF9DED000BC1D0012CBD
:1056F00010D0022C9FED1C0B53EC102B9DED000BDA
:1057000051EC100B0DD0FFF7B6F953EC182BFFF747
:10571000B2F9B9E7019880F0004001909DED000BCF
:10572000A7E7FFF7A8F953EC182BFFF7A7F9ABE7AA
:105730000000F07F00000000182D4454FB210940B8
:10574000182D4454FB2109C0182D4454FB21F9BFE6
:10575000182D4454FB21F93F5205000000000000C1
:105760000000000000000000075C143326A6A13CE6
:1057700070B504462DED028B4D1E00EBC500B0EE5A
:10578000408AF0EE608A90ED000B35F0060017D0ED
:1057900053EC182B51EC100BFFF773F941EC100B85
:1057A0006D1E04EBC50090ED001B51EC100B53EC8B
:1057B000112BFFF7BFF841EC100B35F00600E7D1D5
:1057C000022D36D0042D1CD0062D1CBFBDEC028B43
:1057D00070BD53EC182B51EC100BFFF752F994ED00
:1057E0000A1B53EC112BFFF7A5F853EC182BFFF70E
:1057F00048F994ED081B53EC112BFFF79BF841EC93
:10580000100B53EC182B51EC100BFFF73AF994EDF9
:10581000061B53EC112BFFF78DF853EC182BFFF7F9
:1058200030F994ED040B53EC102BFFF783F841ECA7
:10583000100B53EC182B51EC100BFFF722F994EDE1
:10584000021B53EC112BFFF775F853EC182BFFF7E5
:1058500018F994ED001B53EC112BFFF76BF8BDEC1E
:10586000028B41EC100B70BD10B553EC102B51ECBA
:10587000100BFFF75FF841EC100B10BD10B553ECA7
:10588000112B51EC100BFFF755F841EC100B10BD2C
:105890009FED050B10B553EC102B51EC100BFFF7DF
:1058A00062F941EC100B10BD000000000000000088
:1058B0009FED050B10B553EC102B51EC100BFFF7BF
:1058C000E0F841EC100B10BD0000000000000010DB
:1058D00002E008C8121F08C1002AFAD170477047B9
:1058E000002001E001C1121F002AFBD17047000017
:1058F0000149086070470000CC00002010B541EC61
:10590000100BFFF7D1FC51EC100B10BD82B0CDE9AC
:10591000000121F0004001909DED000B02B051EC20
:10592000100B704700B52DED048B83B041EC190BC3
:10593000FFF7A0FA41EC180B18EE100A18EE901AB7
:105940008DED008B002818BF0120084320F0004097
:10595000C0F17F6000F1E040C00F14D019EE101AC2
:1059600019EE900A8DED009B002918BF0121084314
:1059700020F00040C0F17F6000F1E040C00F04BFA4
:105980000120FFF7B5FF51EC180B03B0BDEC048B01
:1059900000BD00000000803F00000000000000008B
:1059A000000000000000803F000000000000000038
:1059B000000000000000803F000001000200010024
:1059C00003000100020001000400010002000100C8
:1059D00003000100020001000500010002000100B7
:1059E00003000100020001000400010002000100A8
:1059F0000300010002000100060001000200010096
:105A00000300010002000100040001000200010087
:105A10000300010002000100050001000200010076
:105A20000300010002000100040001000200010067
:105A30000300010002000100070001000200010054
:105A40000300010002000100040001000200010047
:105A50000300010002000100050001000200010036
:105A60000300010002000100040001000200010027
:105A70000300010002000100060001000200010015
:105A80000300010002000100040001000200010007
:105A900003000100020001000500010002000100F6
:105AA00003000100020001000400010002000100E7
:105AB0000300010002000100555555555555C53FDD
:105AC0007D6FEB0312D6D4BF5544880E55C1C93F34
:105AD0003B8F68B52882A4BF88B20175E0EF493FCB
